:040000008A15B02885
:100006007B15FB1F0D280130F300F201F101F00111
:08001600FA0DF20CFF300800A6
:0E001E00F201F101F001F801F30100300800D9
:08002C00FA1FF2130030080076
:10003400FB14FB1F2428FF30F300F200F100F00052
:08004400FA0DF20CFF30080078
:10004C007C185C28FC182D287C197B282628A001FC
:10005C007208031D4D287108F2007008F100780831
:10006C00F000F801A0157208031D4D287108F2006C
:10007C007008F100F001A01120167208031D4D2824
:10008C007108F200F101A015720803196F282008FD
:10009C00F302031D031C73280310F21B5C28F80DDC
:1000AC00F00DF10DF20DF30B532873287B1B701C14
:1000BC007728F81F7728F00A0319F10A0319F20AB6
:1000CC00031D7728F20CF10CF00CF30A03197B28B2
:1000DC0077280130FC000F207E280230FC00032022
:1000EC007E280430FC0016207E280830FC001A20E4
:0400FC0000000800F8
:10010000A0017208031D95287108F2007008F10023
:10011000F001A0157208031D95287108F200F10185
:10012000A011201672080319A3282008F302031D4A
:10013000031CA7280310F21BAB28F00DF10DF20DE4
:10014000F30B9B28A7280130FC000F20AE280230BB
:0E015000FC000320AE280430FC00162008003E
:10015E008312031372087606A000F801F9017308E2
:10016E007702031CD2287708FD007308F7007D087C
:10017E00F3007608FD007208F6007D08F20075089F
:10018E00FD007108F5007D08F1007408FD0070088F
:10019E00F4007D08F000770803194B297208FA0065
:1001AE00F217F61777087302F700031905290830BE
:1001BE007702031CFB28F7007408F9007508F40099
:1001CE007608F500F60108307702031CFB28F700CD
:1001DE007408F9007508F400F50108307702031C65
:1001EE00FB287A08F2004B2977080319052903101A
:1001FE00F60CF50CF40CF90CF70BFE28A01F1229C7
:10020E00F909F409F509F609F90A0319F40A0319AB
:10021E00F50A0319F60A7908F80774080318740F1B
:10022E00F00775080318750FF10776080318760F97
:10023E00F207A01B2B29031C3B29F20CF10CF00C2E
:10024E00F80CF30F3B29472903183F29F809F00949
:10025E00F109F209F80A0319F00A0319F10A031950
:10026E00F20A8030FA0643290130FC0026204D297F
:10027E000230FC0026204D290430FC0080204D2940
:10028E000830FC001A204D290030FC000000080048
:10029E007B14FB1F5A29F201FA1FFF30F200F10006
:0A02AE00F000FA0DF20CFF3008001A
:1002B800831203137008F8007108F0007208F10047
:1002C8007308F200F301FB01FC019E30F300FA0110
:1002D800F21F7A29F809F009F109F209F80A031955
:1002E800F00A0319F10A0319F20AFA170230FC009E
:0402F80026200800B4
:1002FC0083120313FB017308031D77080319D52917
:10030C0072087606FA007708F3077E30031C9229F0
:10031C00F3020318D8299529F302031CDB29720870
:10032C00F8007108FC007008FD00F817F6170310B0
:10033C00F201F101F0011830A0007D1CAF29740806
:10034C00F00775080318750FF10776080318760F78
:10035C00F207F20CF10CF00CF80CFC0CFD0C031079
:10036C00A00BA329F21BBF29F80DF00DF10DF20D16
:10037C00F3037B1B701CD129F81FD129F00A031938
:10038C00F10A0319F20A031DD129F20CF10CF00C3D
:10039C00F30A0319D829FA1FF2130030DD290130B2
:1003AC000F20DD2902301A20DD2904300320000043
:0203BC00080037
:0E03BE008312031336088A00350882000800F7
:1003CC0083120313FB01FC01F801730803195E2A65
:1003DC007208FA00F2179E30F302F31F4E2AF3094B
:1003EC00F30A08307302031C232AF300F80D70087B
:1003FC00F8007108F0007208F100F2010830730285
:10040C00031C232AF300F80D7008F8007108F000A3
:10041C00F10108307302031C232AF300F80D700855
:10042C00F800F00108307302031C232AF300F80DC6
:10043C00F8017308031D03102D2A730803192D2AC4
:10044C000310F20CF10CF00CF80CF30B262A7B1BAE
:10045C00781C3B2A031C3B2AF80A0319F00A0319DF
:10046C00F10A0319F20AF21B5B2AFA1F5E2AF2093F
:10047C00F109F009F809F80A0319F00A0319F10A4D
:10048C000319F20A5E2AF201F101F001F8015E2A69
:10049C007B14FB1F612AF201FA1F612AF200F100A2
:1004AC00F000F800FA0DF20C612A0130FC00632A0E
:1004BC000030FC00632AFF30FC00FC080319672A9B
:1004CC004F217208F3007108F2007008F1007808EF
:0404DC00F000080024
:0C04E000831203138030F606AF200800E2
:0604EC00FB15FF300800C3
:1004F20083120313FA017308031D7A147708031D8C
:10050200FA147A080319C52A033A0319902A7A18A9
:100512008D2AF61FC32AC12AF21FC12AC32A7208D2
:100522008039FA00F21376088039F6137A06031935
:100532009E2A7A080319C12AC32A7708730203196B
:10054200A52A031CB92ABD2A760872020319AC2A0D
:10055200031CB92ABD2A750871020319B32A031CA8
:10056200B92ABD2A740870020319C52A0318BD2AC4
:10057200FA080319C32AC12AFA080319C12AC32A8D
:1005820003140800031008000314031508000800F0
:10059200583083120313DE0003305E078400000824
:1005A2005C07F1005D080318013EF2007108DC00EF
:1005B2007208DD0080307206F00080307002031D88
:1005C200E42A003071020318EB2AF001F101F20172
:1005D200F30108008030F00080305D067002031DD8
:1005E200F42A5C08FF3C03181C2BF401F501F60108
:1005F200F7015808F0005908F1005A08F2005B08A8
:10060200F3007922013003180030F000700803195A
:10061200132BFF30F000FF30F100FF30F200FF300B
:10062200F3000800FF30F000FF30F1007F30F200ED
:10063200FF30F300080003305E0784005C0880008E
:100642005808F0005908F1005A08F2005B08F3005C
:0206520008009E
:10065400831203135B08F000F101F201F301FF3090
:10066400F0050030F1057008E0007108E1007F300A
:100674007002F2000030031C013E7102F3007208A4
:10068400E0007308E10080307306F00080307002EF
:10069400031D4E2B003072020318722BF401F50176
:1006A400F601F7015808F0005908F1005A08F20061
:1006B4005B08F3007922013003180030F000700861
:1006C40003196D2B0030F0000030F1008030F2008F
:1006D4007F30F3000800F001F101F201F30108009A
:1006E4006108003C031D782B6008183C0318832B19
:1006F4005808F0005908F1005A08F2005B08F300AA
:1007040008005808F0005908F1005A08F2005B0884
:10071400F300E6215C217008DC007108DD0072083A
:10072400DE007308DF007008F4007108F500720839
:10073400F6007308F7005808F0005908F1005A0849
:10074400F2005B08F3007922013003180030F00056
:1007540070080319BF2B0030F4000030F50000309E
:10076400F6007F30F7005C08F0005D08F1005E08D9
:10077400F2005F08F300702208005C08F0005D08D6
:0C078400F1005E08F2005F08F3000800BE
:100790008312031373087706031DDB2B720876069A
:1007A000031DDB2B71087506031DDB2B7008740617
:0C07B000031903150800031108000800DD
:1007BC00831203135E08F0005F08F100F00DF10DD9
:1007CC007010F00DF10D70105C08F0075D08031847
:1007DC00013EF1077008B5007108B600DF218A11DF
:1007EC000A12E000B50A0319B60ADF218A110A12AF
:1007FC00E100B50A0319B60ADF218A110A12E200D8
:10080C00B50A0319B60ADF218A110A12E3005E0841
:10081C005F0403195D2C5808F0005908F1005A08C0
:10082C00F2005B08F3006008F4006108F500620850
:10083C00F6006308F7007E210130DE02031CDF03A3
:10084C005E08F4005F08F500F40DF50D7410F40D5E
:10085C00F50D74105C08F4075D080318013EF507EC
:10086C007408B5007508B600DF218A110A12F4006D
:10087C00B50A0319B60ADF218A110A12F500B50A66
:10088C000319B60ADF218A110A12F600B50A0319F8
:10089C00B60ADF218A110A12F700AF207008E000B7
:1008AC007108E1007208E2007308E3000D2C600887
:1008BC00F0006108F1006208F2006308F300080020
:1008CC00831203137408003A031D812C7508003A37
:1008DC00031D812C7608003A031D812C7708003A01
:1008EC00031D812CFF30F000FF30F1007F30F2004F
:1008FC00FF30F30008008312031377080319102D3F
:10090C0073080319132D720876068039FA00F21752
:10091C00F617A0017208F8007108FC007008FD00C1
:10092C007408FD027508031C750FFC027608031C85
:10093C00760FF802F801FC01FD01031CAC2C03102E
:10094C00F20CF10CF00CF80C0130A0007708F3025B
:10095C00031CB62C7E302007F3070318162DBB2C76
:10096C007E302007F307031C192D1830FA07FD0DF4
:10097C00FC0DF80DF00DF10DF20DA00D7408F00248
:10098C007508031C750FF1027608031C760FF20232
:10099C00760DA004201CD42C7D14DF2C7408F007D9
:1009AC0075080318750FF10776080318760AF20715
:1009BC007D10FA031F307A05031DBD2C7B1B7D1C9B
:1009CC00062D0310F00DF10DF20DA00D7408F002C0
:1009DC007508031C750FF1027608031C760FF202E2
:1009EC00760D20040139FD070318FC0A0319F80AD7
:1009FC00031D062DF80CFC0CFD0CF30A0319162D27
:100A0C00FA1FF8137808F2007C08F1007D08F0005A
:100A1C0000301B2D013076221B2D02300F201B2D98
:0E0A2C0004301A201B2D0830032000000800A3
:100A3A00831203137008F8007108F000F101F20143
:100A4A00F301FB01FC019630F300FA01F01F332D8C
:100A5A00F809F009F80A0319F00AFA177008F10000
:0C0A6A007808F000F801F201802008007C
:100A760083120313FB0173080319782D7208FA0019
:100A8600F2178E30F302F31F7B2DF309F30A0830B9
:100A96007302031C5E2DF300F10D7208F100F201E2
:100AA60008307302031C5E2DF300F10DF10173088B
:100AB600031D0310662D73080319662D0310F20C2F
:100AC600F10CF30B612D7B1B711C702D031C702D1B
:100AD600F10A0319F20AF21B872DFA1F8A2DF20971
:100AE600F109F10A0319F20A8A2DF201F1018A2DA0
:100AF6007B14FB1F8D2DF201FA1F8D2DFF30F200A6
:100B0600F100FA0DF20C8D2D0130FC008F2D003016
:100B1600FC008F2DFF30FC00FC080319932D4F219C
:0A0B26007108F0007208F1000800E9
:100B300083120313FB01FA01F9018030F800F10C74
:100B4000F00C031CAC2D7408F90775080318750F19
:100B5000FA070318FB0A0310F01FB42D7408FA07F4
:100B600075080318750FFB07FB0CFA0CF90CF80C51
:100B7000031C9F2D7B08F3007A08F2007908F1002E
:060B80007808F0000800F7
:100B860083120313F401F501F601F7015108F00091
:100B96005208F1005308F2005408F300C82301304C
:100BA600031D0030F00070080319E22D0030F0003C
:100BB6000030F1000030F2007F30F30008005108E9
:100BC600F4005208F5005308F6005408F700FC300C
:100BD600F000D430F1003230F2008530F300792293
:100BE600013003180030F00070080319032EFF309F
:100BF600F000FF30F1007F30F200FF30F300080014
:100C06004F30F400AC30F500AE30F6008530F7001A
:100C16005108F0005208F1005308F2005408F3009E
:100C26007922013003180030F00070080319202ED5
:100C3600F001F101F201F3010800F401F501F601FA
:100C4600F7015108F0005208F1005308F200540869
:100C5600F3007922013003180030F0007008D70045
:100C6600700803193E2E0030D1060030D2068030BF
:100C7600D3060030D4065108F0005208F10053089C
:100C8600F2005408F3003B30F400AA30F500383087
:100C9600F6007F30F7007E217008D1007108D2007F
:100CA6007208D3007308D4007008D8007108D90000
:100CB6007208DA007308DB002A233B257008D5008A
:100CC6007108D6001D257008F4007108F500720839
:100CD600F6007308F7005108F0005208F1005308B7
:100CE600F2005408F30070227008D1007108D20097
:100CF6007208D3007308D4007008D8007108D900B0
:100D06007208DA007308DB007130DC000B30DD009E
:100D16000930DE000030DF00DE237008D8007108DD
:100D2600D9007208DA007308DB005508DC005608A3
:100D3600DD00C9227008D1007108D2007208D30004
:100D46007308D40057080319D72EFF30F400FF307C
:100D5600F5007F30F600FF30F7005108F00052082A
:100D6600F1005308F2005408F300C8230130031DB4
:100D76000030F00070080319C52EF001F101F201F0
:100D8600F30108005108F4005208F5005308F60074
:100D96005408F7000030F0000030F1000030F20097
:100DA6007F30F300662408005108F0005208F10075
:0A0DB6005308F2005408F30008008F
:100DC000831603131208013EF000F1010318F10A23
:100DD00083124108F400F50198250630F2007008EE
:100DE000F4007108F50072080319FB2EF50CF40CE1
:100DF000F513FF3EF42E0430F1007408F000710882
:100E00000319062FF00D7010FF3E002F83120313FD
:100E100030307005F3007408F0007508F100F10C33
:100E2000F00CF113F10CF00CF11370089B000F3073
:080E30009D0573089D040800F4
:100E3800831603131208013EF000F1010318F10AAA
:100E480083124108F400F50198250630F200700875
:100E5800F4007108F50072080319372FF50CF40C2B
:100E6800F513FF3E302F0430F1007408F0007108CC
:100E78000319422FF00D7010FF3E3C2F831203130D
:100E880030307005F3007408F0007508F100F10CBB
:100E9800F00CF113F10CF00CF113700895000F3001
:080EA800970573089704080088
:100EB00083120313FB01FC01FA0173080319972F36
:100EC000F2178E30F302F31B682F0319682F9A2F45
:100ED000F309F30A08307302031C7D2FF300F10DB0
:100EE0007208F100F20108307302031C7D2FF10D2E
:100EF000F1017308031D0310852F73080319852F53
:100F00000310F20CF10CF30B802F7B1B711C8F2F45
:100F1000031C8F2FF10A0319F20AF21BA62FFA1FE6
:100F2000A92FF209F109F10A0319F20AA92FF20116
:100F3000F101A92F7B14FB1FAC2FF201FA1FAC2F7C
:100F4000FF30F200F100FA0DF20CAC2F0130FC0082
:100F5000AE2F0030FC00AE2FFF30FC00FC08031960
:0E0F6000B22F4F217108F0007208F100080056
:100F6E00831603138710831212150C309D0408008C
:100F7E00831603130711831212150C309704080001
:0C0F8E00831203139B011D129D1208002A
:100F9A00DF218A110A128000840AB50A0319B60AE7
:080FAA00F003031DCD2F080028
:0C0FB20083120313950117129712080018
:10100000831203134108D1004208D2004308D300E1
:101010004408D4008A11C3258A157008C5007108D8
:10102000C6007208C7007308C8007008F400710891
:10103000F5007208F6007308F7000030F000003089
:10104000F1000030F2007F30F3008A1166248A1527
:101050007008CD007108CE007208CF007308D00070
:101060004D08C1004E08C2004F08C3005008C4001C
:101070004D08F4004E08F5004F08F6005008F70040
:101080004508F0004608F1004708F2004808F30060
:101090008A1170228A157008C9007108CA00720886
:1010A000CB007308CC004508F0004608F100470863
:1010B000F2004808F3004D08F4004E08F5004F0810
:1010C000F6005008F7008A11AF208A157008F40066
:1010D0007108F5007208F6007308F7004908F0007F
:1010E0004A08F1004B08F2004C08F3008A1166240C
:0410F0008A15080055
:1010F40083120313F101F20180307206F000803094
:101104007002031D8728053071020318AF28831667
:101114008701FF30831287000330FB008A30FC0014
:101124005530FD00FD0B9428FC0B9428FB0B9428F0
:101134000000000087010330FB008A30FC005530BA
:10114400FD00FD0BA328FC0BA328FB0BA328000028
:0C1154000000F10A0319F20A7E280800CE
:10116000013083120313A100A2010230A300A401E5
:101170000330A500A6010430A700A8010530A9008E
:10118000AA010630AB00AC010730AD00AE0108305B
:10119000AF00B001BB01BC017A2083168701831226
:1011A000870183168601FF30831286002130FD00FF
:1011B000FD0BD828121492146830831692008A11FD
:1011C000D9278A158A11BF278A15121492146830FC
:1011D000831692008A11C7278A158A11B7278A15A4
:1011E00083168601FF30831286002130FD00FD0B3F
:1011F000F728FF30831686000730FC007D30FD00A5
:10120000FD0B0029FC0B0029831206180929F41490
:101210000A29F41086180E2974140F29741000304E
:10122000F4180130BB00BC01F0017418F00A70081A
:10123000BB07BC010318BC0A061920290314212985
:101240000310F0010318F00A7008BB070318BC0A6A
:1012500086192C2903142D290310F0010318F00A14
:101260007008BB070318BC0A061A38290314392969
:101270000310F0010318F00A7008BB070318BC0A3A
:10128000861A4429031445290310F0010318F00AB3
:101290007008BB070318BC0A061B50290314512908
:1012A0000310F0010318F00A7008BB070318BC0A0A
:1012B000861B5C2903145D290310F0010318F00A52
:1012C0007008BB070318BC0AB101B201B301B40135
:1012D00006186C2903146D290310F0010318F00A95
:1012E0000030F1002108F4002208F5008A11982549
:1012F0008A158A111D258A157008B1007108B2007F
:101300007208B3007308B400861888290314892969
:101310000310F0010318F00A0030F1002308F40074
:101320002408F5008A1198258A158A111D258A1529
:101330003108F4003208F5003308F6003408F700ED
:101340008A11AF208A157008B1007108B2007208C6
:10135000B3007308B4000619AF290314B0290310B1
:10136000F0010318F00A0030F1002508F400260807
:10137000F5008A1198258A158A111D258A153108CC
:10138000F4003208F5003308F6003408F7008A113B
:10139000AF208A157008B1007108B2007208B3005E
:1013A0007308B4008619D6290314D7290310F00155
:1013B0000318F00A0030F1002708F4002808F500AF
:1013C0008A1198258A158A111D258A153108F4007D
:1013D0003208F5003308F6003408F7008A11AF2010
:1013E0008A157008B1007108B2007208B300730862
:1013F000B400061AFD290314FE290310F001031896
:10140000F00A0030F1002908F4002A08F5008A11DA
:1014100098258A158A111D258A153108F40032088D
:10142000F5003308F6003408F7008A11AF208A155A
:101430007008B1007108B2007208B3007308B400FC
:10144000861A242A0314252A0310F0010318F00A2F
:101450000030F1002B08F4002C08F5008A119825C3
:101460008A158A111D258A153108F4003208F50005
:101470003308F6003408F7008A11AF208A15700887
:10148000B1007108B2007208B3007308B400061B03
:101490004B2A03144C2A0310F0010318F00A003001
:1014A000F1002D08F4002E08F5008A1198258A1500
:1014B0008A111D258A153108F4003208F500330819
:1014C000F6003408F7008A11AF208A157008B100C1
:1014D0007108B2007208B3007308B400861B722A48
:1014E0000314732A0310F0010318F00A0030F1000E
:1014F0002F08F4003008F5008A1198258A158A1102
:101500001D258A153108F4003208F5003308F6006D
:101510003408F7008A11AF208A157008BD007108E1
:10152000BE007208BF007308C0003D08B1003E084D
:10153000B2003F08B3004008B4003B08F0003C088C
:10154000F1008A111D258A157008F4007108F50054
:101550007208F6007308F7003D08F0003E08F1003D
:101560003F08F2004008F3008A1166248A157008CB
:10157000B1007108B2007208B3007308B400003003
:10158000F4000030F5002030F6008030F7008A11BA
:1015900070228A157008C1007108C2007208C30069
:1015A0007308C40000200030F4000030F500003063
:1015B000F6007F30F7008A11AF208A150030F40062
:1015C0000030F5007F30F6008630F7008A117E216A
:1015D0008A150030F4000030F5000030F60080304D
:1015E000F7008A1166248A158A1158278A1570080F
:1015F000B7007108B8000030F4000030F50050303A
:10160000F6008130F7003108F0003208F1003308AD
:10161000F2003408F3008A1170228A157008C100A4
:101620007108C2007208C3007308C400002070086B
:10163000F4007108F5007208F6007308F700003036
:10164000F0000030F1000030F2007F30F3008A112A
:1016500070228A150030F4000030F5007F30F6006B
:101660008630F7008A117E218A150030F4000030A0
:10167000F5000030F6008030F7008A1166248A15E4
:101680008A1158278A157008B9007108BA0080308D
:10169000F00080303C067002031D502B3B08003CDC
:1016A00003185D2B3708C1008A111C278A153908D9
:1016B000C1008A11E0268A15652BC1018A111C27F9
:1016C0008A15C1018A11E0268A158230FC00DD30BE
:1016D000FD00FD0B692BFC0B692B00000000F028BE
:0216E000702B6D
:1016E2000034003400347F341834723431347E34A0
:1016F200F034FD3475347C344734583463347A34EE
:10170200583495341D3478348234C4342E347534CC
:10171200A834783421347234EF34933400346F3483
:10172200A034923427346B3446345634153468343A
:02400E004A2F37
:00000001FF
